{"abi":[{"type":"function","name":"execute","inputs":[{"name":"calls","type":"tuple[]","internalType":"struct BatchCallInvoker.Call[]","components":[{"name":"data","type":"bytes","internalType":"bytes"},{"name":"to","type":"address","internalType":"address"},{"name":"value","type":"uint256","internalType":"uint256"}]}],"outputs":[],"stateMutability":"payable"}],"bytecode":{"object":"0x6080604052348015600f57600080fd5b506103848061001f6000396000f3fe60806040526004361061001e5760003560e01c8063a6d0ad6114610023575b600080fd5b610036610031366004610131565b610038565b005b60005b8181101561012c576000838383818110610057576100576101a6565b905060200281019061006991906101bc565b61007290610268565b9050600081602001516001600160a01b03168260400151836000015160405161009b919061031f565b60006040518083038185875af1925050503d80600081146100d8576040519150601f19603f3d011682016040523d82523d6000602084013e6100dd565b606091505b50509050806101225760405162461bcd60e51b815260206004820152600d60248201526c18d85b1b081c995d995c9d1959609a1b604482015260640160405180910390fd5b505060010161003b565b505050565b6000806020838503121561014457600080fd5b823567ffffffffffffffff8082111561015c57600080fd5b818501915085601f83011261017057600080fd5b81358181111561017f57600080fd5b8660208260051b850101111561019457600080fd5b60209290920196919550909350505050565b634e487b7160e01b600052603260045260246000fd5b60008235605e198336030181126101d257600080fd5b9190910192915050565b634e487b7160e01b600052604160045260246000fd5b6040516060810167ffffffffffffffff81118282101715610215576102156101dc565b60405290565b604051601f8201601f1916810167ffffffffffffffff81118282101715610244576102446101dc565b604052919050565b80356001600160a01b038116811461026357600080fd5b919050565b60006060823603121561027a57600080fd5b6102826101f2565b823567ffffffffffffffff8082111561029a57600080fd5b9084019036601f8301126102ad57600080fd5b81356020828211156102c1576102c16101dc565b6102d3601f8301601f1916820161021b565b925081835236818386010111156102e957600080fd5b8181850182850137600081838501015282855261030781880161024c565b90850152505050604092830135928101929092525090565b6000825160005b818110156103405760208186018101518583015201610326565b50600092019182525091905056fea26469706673582212202aa70b9feb29ad43f6bee76a79b3d76a7c797590b9d472ce125179ee3590845e64736f6c63430008190033","linkReferences":{}},"methodIdentifiers":{"execute((bytes,address,uint256)[])":"a6d0ad61"},"id":0}